8=FIX.4.4|9=70|35=D|34=1|49=SENDER|56=TARGET|11=ORD0001|55=AAPL|54=1|38=60|40=2|10=000|
8=FIX.4.4|9=70|35=D|34=2|49=SENDER|56=TARGET|11=ORD0002|55=MSFT|54=2|38=70|40=2|10=000|
8=FIX.4.4|9=70|35=D|34=3|49=SENDER|56=TARGET|11=ORD0003|55=GOOG|54=1|38=80|40=2|10=000|
8=FIX.4.4|9=70|35=D|34=4|49=SENDER|56=TARGET|11=ORD0004|55=AMZN|54=2|38=90|40=2|10=000|
8=FIX.4.4|9=70|35=D|34=5|49=SENDER|56=TARGET|11=ORD0005|55=TSLA|54=1|38=100|40=2|10=000|
8=FIX.4.4|9=70|35=D|34=6|49=SENDER|56=TARGET|11=ORD0006|55=NFLX|54=2|38=110|40=2|10=000|
8=FIX.4.4|9=70|35=D|34=7|49=SENDER|56=TARGET|11=ORD0007|55=META|54=1|38=120|40=2|10=000|
8=FIX.4.4|9=70|35=D|34=8|49=SENDER|56=TARGET|11=ORD0008|55=NVDA|54=2|38=130|40=2|10=000|
8=FIX.4.4|9=70|35=D|34=9|49=SENDER|56=TARGET|11=ORD0009|55=ORCL|54=1|38=140|40=2|10=000|
8=FIX.4.4|9=70|35=D|34=10|49=SENDER|56=TARGET|11=ORD0010|55=IBM|54=2|38=150|40=2|10=000|
